{
  "_format": "hh-sol-artifact-1",
  "contractName": "Counter",
  "sourceName": "contracts/Counter.sol",
  "abi": [
    {
      "inputs": [],
      "stateMutability": "nonpayable",
      "type": "constructor"
    },
    {
      "inputs": [
        {
          "internalType": "address",
          "name": "target",
          "type": "address"
        }
      ],
      "name": "AddressEmptyCode",
      "type": "error"
    },
    {
      "inputs": [],
      "name": "ECDSAInvalidSignature",
      "type": "error"
    },
    {
      "inputs": [
        {
          "internalType": "uint256",
          "name": "length",
          "type": "uint256"
        }
      ],
      "name": "ECDSAInvalidSignatureLength",
      "type": "error"
    },
    {
      "inputs": [
        {
          "internalType": "bytes32",
          "name": "s",
          "type": "bytes32"
        }
      ],
      "name": "ECDSAInvalidSignatureS",
      "type": "error"
    },
    {
      "inputs": [
        {
          "internalType": "address",
          "name": "implementation",
          "type": "address"
        }
      ],
      "name": "ERC1967InvalidImplementation",
      "type": "error"
    },
    {
      "inputs": [],
      "name": "ERC1967NonPayable",
      "type": "error"
    },
    {
      "inputs": [
        {
          "internalType": "address",
          "name": "spender",
          "type": "address"
        },
        {
          "internalType": "uint256",
          "name": "allowance",
          "type": "uint256"
        },
        {
          "internalType": "uint256",
          "name": "needed",
          "type": "uint256"
        }
      ],
      "name": "ERC20InsufficientAllowance",
      "type": "error"
    },
    {
      "inputs": [
        {
          "internalType": "address",
          "name": "sender",
          "type": "address"
        },
        {
          "internalType": "uint256",
          "name": "balance",
          "type": "uint256"
        },
        {
          "internalType": "uint256",
          "name": "needed",
          "type": "uint256"
        }
      ],
      "name": "ERC20InsufficientBalance",
      "type": "error"
    },
    {
      "inputs": [
        {
          "internalType": "address",
          "name": "approver",
          "type": "address"
        }
      ],
      "name": "ERC20InvalidApprover",
      "type": "error"
    },
    {
      "inputs": [
        {
          "internalType": "address",
          "name": "receiver",
          "type": "address"
        }
      ],
      "name": "ERC20InvalidReceiver",
      "type": "error"
    },
    {
      "inputs": [
        {
          "internalType": "address",
          "name": "sender",
          "type": "address"
        }
      ],
      "name": "ERC20InvalidSender",
      "type": "error"
    },
    {
      "inputs": [
        {
          "internalType": "address",
          "name": "spender",
          "type": "address"
        }
      ],
      "name": "ERC20InvalidSpender",
      "type": "error"
    },
    {
      "inputs": [
        {
          "internalType": "uint256",
          "name": "deadline",
          "type": "uint256"
        }
      ],
      "name": "ERC2612ExpiredSignature",
      "type": "error"
    },
    {
      "inputs": [
        {
          "internalType": "address",
          "name": "signer",
          "type": "address"
        },
        {
          "internalType": "address",
          "name": "owner",
          "type": "address"
        }
      ],
      "name": "ERC2612InvalidSigner",
      "type": "error"
    },
    {
      "inputs": [],
      "name": "EnforcedPause",
      "type": "error"
    },
    {
      "inputs": [],
      "name": "ExpectedPause",
      "type": "error"
    },
    {
      "inputs": [],
      "name": "FailedInnerCall",
      "type": "error"
    },
    {
      "inputs": [
        {
          "internalType": "address",
          "name": "account",
          "type": "address"
        },
        {
          "internalType": "uint256",
          "name": "currentNonce",
          "type": "uint256"
        }
      ],
      "name": "InvalidAccountNonce",
      "type": "error"
    },
    {
      "inputs": [],
      "name": "InvalidInitialization",
      "type": "error"
    },
    {
      "inputs": [],
      "name": "NotInitializing",
      "type": "error"
    },
    {
      "inputs": [
        {
          "internalType": "address",
          "name": "owner",
          "type": "address"
        }
      ],
      "name": "OwnableInvalidOwner",
      "type": "error"
    },
    {
      "inputs": [
        {
          "internalType": "address",
          "name": "account",
          "type": "address"
        }
      ],
      "name": "OwnableUnauthorizedAccount",
      "type": "error"
    },
    {
      "inputs": [],
      "name": "UUPSUnauthorizedCallContext",
      "type": "error"
    },
    {
      "inputs": [
        {
          "internalType": "bytes32",
          "name": "slot",
          "type": "bytes32"
        }
      ],
      "name": "UUPSUnsupportedProxiableUUID",
      "type": "error"
    },
    {
      "anonymous": false,
      "inputs": [
        {
          "indexed": true,
          "internalType": "address",
          "name": "owner",
          "type": "address"
        },
        {
          "indexed": true,
          "internalType": "address",
          "name": "spender",
          "type": "address"
        },
        {
          "indexed": false,
          "internalType": "uint256",
          "name": "value",
          "type": "uint256"
        }
      ],
      "name": "Approval",
      "type": "event"
    },
    {
      "anonymous": false,
      "inputs": [],
      "name": "EIP712DomainChanged",
      "type": "event"
    },
    {
      "anonymous": false,
      "inputs": [
        {
          "indexed": false,
          "internalType": "uint64",
          "name": "version",
          "type": "uint64"
        }
      ],
      "name": "Initialized",
      "type": "event"
    },
    {
      "anonymous": false,
      "inputs": [
        {
          "indexed": true,
          "internalType": "address",
          "name": "previousOwner",
          "type": "address"
        },
        {
          "indexed": true,
          "internalType": "address",
          "name": "newOwner",
          "type": "address"
        }
      ],
      "name": "OwnershipTransferred",
      "type": "event"
    },
    {
      "anonymous": false,
      "inputs": [
        {
          "indexed": false,
          "internalType": "address",
          "name": "account",
          "type": "address"
        }
      ],
      "name": "Paused",
      "type": "event"
    },
    {
      "anonymous": false,
      "inputs": [
        {
          "indexed": true,
          "internalType": "address",
          "name": "from",
          "type": "address"
        },
        {
          "indexed": true,
          "internalType": "address",
          "name": "to",
          "type": "address"
        },
        {
          "indexed": false,
          "internalType": "uint256",
          "name": "value",
          "type": "uint256"
        }
      ],
      "name": "Transfer",
      "type": "event"
    },
    {
      "anonymous": false,
      "inputs": [
        {
          "indexed": false,
          "internalType": "address",
          "name": "account",
          "type": "address"
        }
      ],
      "name": "Unpaused",
      "type": "event"
    },
    {
      "anonymous": false,
      "inputs": [
        {
          "indexed": true,
          "internalType": "address",
          "name": "implementation",
          "type": "address"
        }
      ],
      "name": "Upgraded",
      "type": "event"
    },
    {
      "inputs": [],
      "name": "DOMAIN_SEPARATOR",
      "outputs": [
        {
          "internalType": "bytes32",
          "name": "",
          "type": "bytes32"
        }
      ],
      "stateMutability": "view",
      "type": "function"
    },
    {
      "inputs": [],
      "name": "UPGRADE_INTERFACE_VERSION",
      "outputs": [
        {
          "internalType": "string",
          "name": "",
          "type": "string"
        }
      ],
      "stateMutability": "view",
      "type": "function"
    },
    {
      "inputs": [],
      "name": "airdropAmount",
      "outputs": [
        {
          "internalType": "uint256",
          "name": "",
          "type": "uint256"
        }
      ],
      "stateMutability": "view",
      "type": "function"
    },
    {
      "inputs": [
        {
          "internalType": "address",
          "name": "owner",
          "type": "address"
        },
        {
          "internalType": "address",
          "name": "spender",
          "type": "address"
        }
      ],
      "name": "allowance",
      "outputs": [
        {
          "internalType": "uint256",
          "name": "",
          "type": "uint256"
        }
      ],
      "stateMutability": "view",
      "type": "function"
    },
    {
      "inputs": [
        {
          "internalType": "address",
          "name": "spender",
          "type": "address"
        },
        {
          "internalType": "uint256",
          "name": "value",
          "type": "uint256"
        }
      ],
      "name": "approve",
      "outputs": [
        {
          "internalType": "bool",
          "name": "",
          "type": "bool"
        }
      ],
      "stateMutability": "nonpayable",
      "type": "function"
    },
    {
      "inputs": [
        {
          "internalType": "address",
          "name": "account",
          "type": "address"
        }
      ],
      "name": "balanceOf",
      "outputs": [
        {
          "internalType": "uint256",
          "name": "",
          "type": "uint256"
        }
      ],
      "stateMutability": "view",
      "type": "function"
    },
    {
      "inputs": [
        {
          "internalType": "uint256",
          "name": "value",
          "type": "uint256"
        }
      ],
      "name": "burn",
      "outputs": [],
      "stateMutability": "nonpayable",
      "type": "function"
    },
    {
      "inputs": [
        {
          "internalType": "address",
          "name": "account",
          "type": "address"
        },
        {
          "internalType": "uint256",
          "name": "value",
          "type": "uint256"
        }
      ],
      "name": "burnFrom",
      "outputs": [],
      "stateMutability": "nonpayable",
      "type": "function"
    },
    {
      "inputs": [],
      "name": "claimAirdrop",
      "outputs": [],
      "stateMutability": "nonpayable",
      "type": "function"
    },
    {
      "inputs": [],
      "name": "decimals",
      "outputs": [
        {
          "internalType": "uint8",
          "name": "",
          "type": "uint8"
        }
      ],
      "stateMutability": "view",
      "type": "function"
    },
    {
      "inputs": [],
      "name": "eip712Domain",
      "outputs": [
        {
          "internalType": "bytes1",
          "name": "fields",
          "type": "bytes1"
        },
        {
          "internalType": "string",
          "name": "name",
          "type": "string"
        },
        {
          "internalType": "string",
          "name": "version",
          "type": "string"
        },
        {
          "internalType": "uint256",
          "name": "chainId",
          "type": "uint256"
        },
        {
          "internalType": "address",
          "name": "verifyingContract",
          "type": "address"
        },
        {
          "internalType": "bytes32",
          "name": "salt",
          "type": "bytes32"
        },
        {
          "internalType": "uint256[]",
          "name": "extensions",
          "type": "uint256[]"
        }
      ],
      "stateMutability": "view",
      "type": "function"
    },
    {
      "inputs": [
        {
          "internalType": "address",
          "name": "",
          "type": "address"
        }
      ],
      "name": "hasClaimedAirdrop",
      "outputs": [
        {
          "internalType": "bool",
          "name": "",
          "type": "bool"
        }
      ],
      "stateMutability": "view",
      "type": "function"
    },
    {
      "inputs": [
        {
          "internalType": "address",
          "name": "initialOwner",
          "type": "address"
        },
        {
          "internalType": "uint256",
          "name": "_airdropAmount",
          "type": "uint256"
        },
        {
          "internalType": "uint256",
          "name": "_minimumBalanceToClaim",
          "type": "uint256"
        }
      ],
      "name": "initialize",
      "outputs": [],
      "stateMutability": "nonpayable",
      "type": "function"
    },
    {
      "inputs": [],
      "name": "minimumBalanceToClaim",
      "outputs": [
        {
          "internalType": "uint256",
          "name": "",
          "type": "uint256"
        }
      ],
      "stateMutability": "view",
      "type": "function"
    },
    {
      "inputs": [],
      "name": "name",
      "outputs": [
        {
          "internalType": "string",
          "name": "",
          "type": "string"
        }
      ],
      "stateMutability": "view",
      "type": "function"
    },
    {
      "inputs": [
        {
          "internalType": "address",
          "name": "owner",
          "type": "address"
        }
      ],
      "name": "nonces",
      "outputs": [
        {
          "internalType": "uint256",
          "name": "",
          "type": "uint256"
        }
      ],
      "stateMutability": "view",
      "type": "function"
    },
    {
      "inputs": [],
      "name": "owner",
      "outputs": [
        {
          "internalType": "address",
          "name": "",
          "type": "address"
        }
      ],
      "stateMutability": "view",
      "type": "function"
    },
    {
      "inputs": [],
      "name": "paused",
      "outputs": [
        {
          "internalType": "bool",
          "name": "",
          "type": "bool"
        }
      ],
      "stateMutability": "view",
      "type": "function"
    },
    {
      "inputs": [
        {
          "internalType": "address",
          "name": "owner",
          "type": "address"
        },
        {
          "internalType": "address",
          "name": "spender",
          "type": "address"
        },
        {
          "internalType": "uint256",
          "name": "value",
          "type": "uint256"
        },
        {
          "internalType": "uint256",
          "name": "deadline",
          "type": "uint256"
        },
        {
          "internalType": "uint8",
          "name": "v",
          "type": "uint8"
        },
        {
          "internalType": "bytes32",
          "name": "r",
          "type": "bytes32"
        },
        {
          "internalType": "bytes32",
          "name": "s",
          "type": "bytes32"
        }
      ],
      "name": "permit",
      "outputs": [],
      "stateMutability": "nonpayable",
      "type": "function"
    },
    {
      "inputs": [],
      "name": "proxiableUUID",
      "outputs": [
        {
          "internalType": "bytes32",
          "name": "",
          "type": "bytes32"
        }
      ],
      "stateMutability": "view",
      "type": "function"
    },
    {
      "inputs": [],
      "name": "renounceOwnership",
      "outputs": [],
      "stateMutability": "nonpayable",
      "type": "function"
    },
    {
      "inputs": [],
      "name": "symbol",
      "outputs": [
        {
          "internalType": "string",
          "name": "",
          "type": "string"
        }
      ],
      "stateMutability": "view",
      "type": "function"
    },
    {
      "inputs": [],
      "name": "totalSupply",
      "outputs": [
        {
          "internalType": "uint256",
          "name": "",
          "type": "uint256"
        }
      ],
      "stateMutability": "view",
      "type": "function"
    },
    {
      "inputs": [
        {
          "internalType": "address",
          "name": "to",
          "type": "address"
        },
        {
          "internalType": "uint256",
          "name": "value",
          "type": "uint256"
        }
      ],
      "name": "transfer",
      "outputs": [
        {
          "internalType": "bool",
          "name": "",
          "type": "bool"
        }
      ],
      "stateMutability": "nonpayable",
      "type": "function"
    },
    {
      "inputs": [
        {
          "internalType": "address",
          "name": "from",
          "type": "address"
        },
        {
          "internalType": "address",
          "name": "to",
          "type": "address"
        },
        {
          "internalType": "uint256",
          "name": "value",
          "type": "uint256"
        }
      ],
      "name": "transferFrom",
      "outputs": [
        {
          "internalType": "bool",
          "name": "",
          "type": "bool"
        }
      ],
      "stateMutability": "nonpayable",
      "type": "function"
    },
    {
      "inputs": [
        {
          "internalType": "address",
          "name": "newOwner",
          "type": "address"
        }
      ],
      "name": "transferOwnership",
      "outputs": [],
      "stateMutability": "nonpayable",
      "type": "function"
    },
    {
      "inputs": [
        {
          "internalType": "address",
          "name": "newImplementation",
          "type": "address"
        },
        {
          "internalType": "bytes",
          "name": "data",
          "type": "bytes"
        }
      ],
      "name": "upgradeToAndCall",
      "outputs": [],
      "stateMutability": "payable",
      "type": "function"
    },
    {
      "inputs": [],
      "name": "withdrawRemainingTokens",
      "outputs": [],
      "stateMutability": "nonpayable",
      "type": "function"
    }
  ],
  "bytecode": "0x60a06040523073ffffffffffffffffffffffffffffffffffffffff1660809073ffffffffffffffffffffffffffffffffffffffff168152503480156200004457600080fd5b50620000556200005b60201b60201c565b620001cf565b60006200006d6200016560201b60201c565b90508060000160089054906101000a900460ff1615620000b9576040517ff92ee8a900000000000000000000000000000000000000000000000000000000815260040160405180910390fd5b67ffffffffffffffff80168160000160009054906101000a900467ffffffffffffffff1667ffffffffffffffff1614620001625767ffffffffffffffff8160000160006101000a81548167ffffffffffffffff021916908367ffffffffffffffff1602179055507fc7f505b2f371ae2175ee4913f4499e1f2633a7b5936321eed1cdaeb6115181d267ffffffffffffffff604051620001599190620001b2565b60405180910390a15b50565b60007ff0c57e16840df040f15088dc2f81fe391c3923bec73e23a9662efc9c229c6a00905090565b600067ffffffffffffffff82169050919050565b620001ac816200018d565b82525050565b6000602082019050620001c96000830184620001a1565b92915050565b60805161399a620001f96000396000818161143a0152818161148f015261164a015261399a6000f3fe6080604052600436106101b75760003560e01c80637a1ac61e116100ec578063ad3cb1cc1161008a578063dd62ed3e11610064578063dd62ed3e146105d1578063f2fde38b1461060e578063f4cdda3614610637578063fc2ea8a514610674576101b7565b8063ad3cb1cc14610552578063d112b5641461057d578063d505accf146105a8576101b7565b80638afbf669116100c65780638afbf669146104a85780638da5cb5b146104bf57806395d89b41146104ea578063a9059cbb14610515576101b7565b80637a1ac61e146104115780637ecebe001461043a57806384b0196e14610477576101b7565b80634f1ef286116101595780635c975abb116101335780635c975abb1461036957806370a0823114610394578063715018a6146103d157806379cc6790146103e8576101b7565b80634f1ef2861461030b57806352d1902d146103275780635b88349d14610352576101b7565b806323b872dd1161019557806323b872dd1461024f578063313ce5671461028c5780633644e515146102b757806342966c68146102e2576101b7565b806306fdde03146101bc578063095ea7b3146101e757806318160ddd14610224575b600080fd5b3480156101c857600080fd5b506101d161069f565b6040516101de9190612a4e565b60405180910390f35b3480156101f357600080fd5b5061020e60048036038101906102099190612b18565b610740565b60405161021b9190612b73565b60405180910390f35b34801561023057600080fd5b50610239610763565b6040516102469190612b9d565b60405180910390f35b34801561025b57600080fd5b5061027660048036038101906102719190612bb8565b61077b565b6040516102839190612b73565b60405180910390f35b34801561029857600080fd5b506102a16107aa565b6040516102ae9190612c27565b60405180910390f35b3480156102c357600080fd5b506102cc6107b3565b6040516102d99190612c5b565b60405180910390f35b3480156102ee57600080fd5b5061030960048036038101906103049190612c76565b6107c2565b005b61032560048036038101906103209190612dd8565b6107d6565b005b34801561033357600080fd5b5061033c6107f5565b6040516103499190612c5b565b60405180910390f35b34801561035e57600080fd5b50610367610828565b005b34801561037557600080fd5b5061037e610966565b60405161038b9190612b73565b60405180910390f35b3480156103a057600080fd5b506103bb60048036038101906103b69190612e34565b61098b565b6040516103c89190612b9d565b60405180910390f35b3480156103dd57600080fd5b506103e66109e2565b005b3480156103f457600080fd5b5061040f600480360381019061040a9190612b18565b6109f6565b005b34801561041d57600080fd5b5061043860048036038101906104339190612e61565b610a16565b005b34801561044657600080fd5b50610461600480360381019061045c9190612e34565b610c88565b60405161046e9190612b9d565b60405180910390f35b34801561048357600080fd5b5061048c610c9a565b60405161049f9796959493929190612fbc565b60405180910390f35b3480156104b457600080fd5b506104bd610dac565b005b3480156104cb57600080fd5b506104d4610e19565b6040516104e19190613040565b60405180910390f35b3480156104f657600080fd5b506104ff610e51565b60405161050c9190612a4e565b60405180910390f35b34801561052157600080fd5b5061053c60048036038101906105379190612b18565b610ef2565b6040516105499190612b73565b60405180910390f35b34801561055e57600080fd5b50610567610f15565b6040516105749190612a4e565b60405180910390f35b34801561058957600080fd5b50610592610f4e565b60405161059f9190612b9d565b60405180910390f35b3480156105b457600080fd5b506105cf60048036038101906105ca91906130b3565b610f54565b005b3480156105dd57600080fd5b506105f860048036038101906105f39190613155565b61109c565b6040516106059190612b9d565b60405180910390f35b34801561061a57600080fd5b5061063560048036038101906106309190612e34565b611131565b005b34801561064357600080fd5b5061065e60048036038101906106599190612e34565b6111b7565b60405161066b9190612b73565b60405180910390f35b34801561068057600080fd5b506106896111d7565b6040516106969190612b9d565b60405180910390f35b606060006106ab6111dd565b90508060030180546106bc906131c4565b80601f01602080910402602001604051908101604052809291908181526020018280546106e8906131c4565b80156107355780601f1061070a57610100808354040283529160200191610735565b820191906000526020600020905b81548152906001019060200180831161071857829003601f168201915b505050505091505090565b60008061074b611205565b905061075881858561120d565b600191505092915050565b60008061076e6111dd565b9050806002015491505090565b600080610786611205565b905061079385828561121f565b61079e8585856112b3565b60019150509392505050565b60006012905090565b60006107bd6113a7565b905090565b6107d36107cd611205565b826113b6565b50565b6107de611438565b6107e78261151e565b6107f18282611529565b5050565b60006107ff611648565b7f360894a13ba1a3210667c828492db98dca3e2076cc3735a920a3ca505d382bbc60001b905090565b6002546108343361098b565b1015610875576040517f08c379a000000000000000000000000000000000000000000000000000000000815260040161086c90613267565b60405180910390fd5b6000803373ffffffffffffffffffffffffffffffffffffffff1673ffffffffffffffffffffffffffffffffffffffff16815260200190815260200160002060009054906101000a900460ff1615610901576040517f08c379a00000000000000000000000000000000000000000000000000000000081526004016108f8906132f9565b60405180910390fd5b61090d336001546116cf565b60016000803373ffffffffffffffffffffffffffffffffffffffff1673ffffffffffffffffffffffffffffffffffffffff16815260200190815260200160002060006101000a81548160ff021916908315150217905550565b600080610971611751565b90508060000160009054906101000a900460ff1691505090565b6000806109966111dd565b90508060000160008473ffffffffffffffffffffffffffffffffffffffff1673ffffffffffffffffffffffffffffffffffffffff16815260200190815260200160002054915050919050565b6109ea611779565b6109f46000611800565b565b610a0882610a02611205565b8361121f565b610a1282826113b6565b5050565b6000610a206118d7565b905060008160000160089054906101000a900460ff1615905060008260000160009054906101000a900467ffffffffffffffff1690506000808267ffffffffffffffff16148015610a6e5750825b9050600060018367ffffffffffffffff16148015610aa3575060003073ffffffffffffffffffffffffffffffffffffffff163b145b905081158015610ab1575080155b15610ae8576040517ff92ee8a900000000000000000000000000000000000000000000000000000000815260040160405180910390fd5b60018560000160006101000a81548167ffffffffffffffff021916908367ffffffffffffffff1602179055508315610b385760018560000160086101000a81548160ff0219169083151502179055505b610bac6040518060400160405280600781526020017f436f756e746572000000000000000000000000000000000000000000000000008152506040518060400160405280600381526020017f4d544b00000000000000000000000000000000000000000000000000000000008152506118ff565b610bb4611915565b610bbc61191f565b610bc588611931565b610bce88611131565b610c0c6040518060400160405280600781526020017f436f756e74657200000000000000000000000000000000000000000000000000815250611945565b610c1461198f565b86600181905550856002819055508315610c7e5760008560000160086101000a81548160ff0219169083151502179055507fc7f505b2f371ae2175ee4913f4499e1f2633a7b5936321eed1cdaeb6115181d26001604051610c759190613372565b60405180910390a15b5050505050505050565b6000610c9382611999565b9050919050565b6000606080600080600060606000610cb06119f0565b90506000801b8160000154148015610cce57506000801b8160010154145b610d0d576040517f08c379a0000000000000000000000000000000000000000000000000000000008152600401610d04906133d9565b60405180910390fd5b610d15611a18565b610d1d611ab9565b46306000801b600067ffffffffffffffff811115610d3e57610d3d612cad565b5b604051908082528060200260200182016040528015610d6c5781602001602082028036833780820191505090505b507f0f0000000000000000000000000000000000000000000000000000000000000095949392919097509750975097509750975097505090919293949596565b610db4611779565b6000610dbf3061098b565b905060008111610e04576040517f08c379a0000000000000000000000000000000000000000000000000000000008152600401610dfb90613445565b60405180910390fd5b610e1630610e10610e19565b836112b3565b50565b600080610e24611b5a565b90508060000160009054906101000a900473ffffffffffffffffffffffffffffffffffffffff1691505090565b60606000610e5d6111dd565b9050806004018054610e6e906131c4565b80601f0160208091040260200160405190810160405280929190818152602001828054610e9a906131c4565b8015610ee75780601f10610ebc57610100808354040283529160200191610ee7565b820191906000526020600020905b815481529060010190602001808311610eca57829003601f168201915b505050505091505090565b600080610efd611205565b9050610f0a8185856112b3565b600191505092915050565b6040518060400160405280600581526020017f352e302e3000000000000000000000000000000000000000000000000000000081525081565b60025481565b83421115610f9957836040517f62791302000000000000000000000000000000000000000000000000000000008152600401610f909190612b9d565b60405180910390fd5b60007f6e71edae12b1b97f4d1f60370fef10105fa2faae0126114a169c64845d6126c9888888610fc88c611b82565b89604051602001610fde96959493929190613465565b604051602081830303815290604052805190602001209050600061100182611be7565b9050600061101182878787611c01565b90508973ffffffffffffffffffffffffffffffffffffffff168173ffffffffffffffffffffffffffffffffffffffff161461108557808a6040517f4b800e4600000000000000000000000000000000000000000000000000000000815260040161107c9291906134c6565b60405180910390fd5b6110908a8a8a61120d565b50505050505050505050565b6000806110a76111dd565b90508060010160008573ffffffffffffffffffffffffffffffffffffffff1673ffffffffffffffffffffffffffffffffffffffff16815260200190815260200160002060008473ffffffffffffffffffffffffffffffffffffffff1673ffffffffffffffffffffffffffffffffffffffff1681526020019081526020016000205491505092915050565b611139611779565b600073ffffffffffffffffffffffffffffffffffffffff168173ffffffffffffffffffffffffffffffffffffffff16036111ab5760006040517f1e4fbdf70000000000000000000000000000000000000000000000000000000081526004016111a29190613040565b60405180910390fd5b6111b481611800565b50565b60006020528060005260406000206000915054906101000a900460ff1681565b60015481565b60007f52c63247e1f47db19d5ce0460030c497f067ca4cebf71ba98eeadabe20bace00905090565b600033905090565b61121a8383836001611c31565b505050565b600061122b848461109c565b90507fffffffffffffffffffffffffffffffffffffffffffffffffffffffffffffffff81146112ad578181101561129d578281836040517ffb8f41b2000000000000000000000000000000000000000000000000000000008152600401611294939291906134ef565b60405180910390fd5b6112ac84848484036000611c31565b5b50505050565b600073ffffffffffffffffffffffffffffffffffffffff168373ffffffffffffffffffffffffffffffffffffffff16036113255760006040517f96c6fd1e00000000000000000000000000000000000000000000000000000000815260040161131c9190613040565b60405180910390fd5b600073ffffffffffffffffffffffffffffffffffffffff168273ffffffffffffffffffffffffffffffffffffffff16036113975760006040517fec442f0500000000000000000000000000000000000000000000000000000000815260040161138e9190613040565b60405180910390fd5b6113a2838383611e17565b505050565b60006113b1611e27565b905090565b600073ffffffffffffffffffffffffffffffffffffffff168273ffffffffffffffffffffffffffffffffffffffff16036114285760006040517f96c6fd1e00000000000000000000000000000000000000000000000000000000815260040161141f9190613040565b60405180910390fd5b61143482600083611e17565b5050565b7f000000000000000000000000000000000000000000000000000000000000000073ffffffffffffffffffffffffffffffffffffffff163073ffffffffffffffffffffffffffffffffffffffff1614806114e557507f000000000000000000000000000000000000000000000000000000000000000073ffffffffffffffffffffffffffffffffffffffff166114cc611e8b565b73ffffffffffffffffffffffffffffffffffffffff1614155b1561151c576040517fe07c8dba00000000000000000000000000000000000000000000000000000000815260040160405180910390fd5b565b611526611779565b50565b8173ffffffffffffffffffffffffffffffffffffffff166352d1902d6040518163ffffffff1660e01b8152600401602060405180830381865afa92505050801561159157506040513d601f19601f8201168201806040525081019061158e919061353b565b60015b6115d257816040517f4c9c8ce30000000000000000000000000000000000000000000000000000000081526004016115c99190613040565b60405180910390fd5b7f360894a13ba1a3210667c828492db98dca3e2076cc3735a920a3ca505d382bbc60001b811461163957806040517faa1d49a40000000000000000000000000000000000000000000000000000000081526004016116309190612c5b565b60405180910390fd5b6116438383611ee2565b505050565b7f000000000000000000000000000000000000000000000000000000000000000073ffffffffffffffffffffffffffffffffffffffff163073ffffffffffffffffffffffffffffffffffffffff16146116cd576040517fe07c8dba00000000000000000000000000000000000000000000000000000000815260040160405180910390fd5b565b600073ffffffffffffffffffffffffffffffffffffffff168273ffffffffffffffffffffffffffffffffffffffff16036117415760006040517fec442f050000000000000000000000000000000000000000000000000000000081526004016117389190613040565b60405180910390fd5b61174d60008383611e17565b5050565b60007fcd5ed15c6e187e77e9aee88184c21f4f2182ab5827cb3b7e07fbedcd63f03300905090565b611781611205565b73ffffffffffffffffffffffffffffffffffffffff1661179f610e19565b73ffffffffffffffffffffffffffffffffffffffff16146117fe576117c2611205565b6040517f118cdaa70000000000000000000000000000000000000000000000000000000081526004016117f59190613040565b60405180910390fd5b565b600061180a611b5a565b905060008160000160009054906101000a900473ffffffffffffffffffffffffffffffffffffffff169050828260000160006101000a81548173ffffffffffffffffffffffffffffffffffffffff021916908373ffffffffffffffffffffffffffffffffffffffff1602179055508273ffffffffffffffffffffffffffffffffffffffff168173ffffffffffffffffffffffffffffffffffffffff167f8be0079c531659141344cd1fd0a4f28419497f9722a3daafe3b4186f6b6457e060405160405180910390a3505050565b60007ff0c57e16840df040f15088dc2f81fe391c3923bec73e23a9662efc9c229c6a00905090565b611907611f55565b6119118282611f95565b5050565b61191d611f55565b565b611927611f55565b61192f611fd2565b565b611939611f55565b61194281612006565b50565b61194d611f55565b61198c816040518060400160405280600181526020017f310000000000000000000000000000000000000000000000000000000000000081525061208c565b50565b611997611f55565b565b6000806119a46120e1565b90508060000160008473ffffffffffffffffffffffffffffffffffffffff1673ffffffffffffffffffffffffffffffffffffffff16815260200190815260200160002054915050919050565b60007fa16a46d94261c7517cc8ff89f61c0ce93598e3c849801011dee649a6a557d100905090565b60606000611a246119f0565b9050806002018054611a35906131c4565b80601f0160208091040260200160405190810160405280929190818152602001828054611a61906131c4565b8015611aae5780601f10611a8357610100808354040283529160200191611aae565b820191906000526020600020905b815481529060010190602001808311611a9157829003601f168201915b505050505091505090565b60606000611ac56119f0565b9050806003018054611ad6906131c4565b80601f0160208091040260200160405190810160405280929190818152602001828054611b02906131c4565b8015611b4f5780601f10611b2457610100808354040283529160200191611b4f565b820191906000526020600020905b815481529060010190602001808311611b3257829003601f168201915b505050505091505090565b60007f9016d09d72d40fdae2fd8ceac6b6234c7706214fd39c1cd1e609a0528c199300905090565b600080611b8d6120e1565b90508060000160008473ffffffffffffffffffffffffffffffffffffffff1673ffffffffffffffffffffffffffffffffffffffff168152602001908152602001600020600081548092919060010191905055915050919050565b6000611bfa611bf46113a7565b83612109565b9050919050565b600080600080611c138888888861214a565b925092509250611c23828261223e565b829350505050949350505050565b6000611c3b6111dd565b9050600073ffffffffffffffffffffffffffffffffffffffff168573ffffffffffffffffffffffffffffffffffffffff1603611caf5760006040517fe602df05000000000000000000000000000000000000000000000000000000008152600401611ca69190613040565b60405180910390fd5b600073ffffffffffffffffffffffffffffffffffffffff168473ffffffffffffffffffffffffffffffffffffffff1603611d215760006040517f94280d62000000000000000000000000000000000000000000000000000000008152600401611d189190613040565b60405180910390fd5b828160010160008773ffffffffffffffffffffffffffffffffffffffff1673ffffffffffffffffffffffffffffffffffffffff16815260200190815260200160002060008673ffffffffffffffffffffffffffffffffffffffff1673ffffffffffffffffffffffffffffffffffffffff168152602001908152602001600020819055508115611e10578373ffffffffffffffffffffffffffffffffffffffff168573ffffffffffffffffffffffffffffffffffffffff167f8c5be1e5ebec7d5bd14f71427d1e84f3dd0314c0f7b2291e5b200ac8c7c3b92585604051611e079190612b9d565b60405180910390a35b5050505050565b611e228383836123a2565b505050565b60007f8b73c3c69bb8fe3d512ecc4cf759cc79239f7b179b0ffacaa9a75d522b39400f611e526123ba565b611e5a612436565b4630604051602001611e70959493929190613568565b60405160208183030381529060405280519060200120905090565b6000611eb97f360894a13ba1a3210667c828492db98dca3e2076cc3735a920a3ca505d382bbc60001b6124b2565b60000160009054906101000a900473ffffffffffffffffffffffffffffffffffffffff16905090565b611eeb826124bc565b8173ffffffffffffffffffffffffffffffffffffffff167fbc7cd75a20ee27fd9adebab32041f755214dbc6bffa90cc0225b39da2e5c2d3b60405160405180910390a2600081511115611f4857611f428282612589565b50611f51565b611f5061260d565b5b5050565b611f5d61264a565b611f93576040517fd7e6bcf800000000000000000000000000000000000000000000000000000000815260040160405180910390fd5b565b611f9d611f55565b6000611fa76111dd565b905082816003019081611fba919061375d565b5081816004019081611fcc919061375d565b50505050565b611fda611f55565b6000611fe4611751565b905060008160000160006101000a81548160ff02191690831515021790555050565b61200e611f55565b600073ffffffffffffffffffffffffffffffffffffffff168173ffffffffffffffffffffffffffffffffffffffff16036120805760006040517f1e4fbdf70000000000000000000000000000000000000000000000000000000081526004016120779190613040565b60405180910390fd5b61208981611800565b50565b612094611f55565b600061209e6119f0565b9050828160020190816120b1919061375d565b50818160030190816120c3919061375d565b506000801b81600001819055506000801b8160010181905550505050565b60007f5ab42ced628888259c08ac98db1eb0cf702fc1501344311d8b100cd1bfe4bb00905090565b60006040517f190100000000000000000000000000000000000000000000000000000000000081528360028201528260228201526042812091505092915050565b60008060007f7fffffffffffffffffffffffffffffff5d576e7357a4501ddfe92f46681b20a08460001c111561218a576000600385925092509250612234565b6000600188888888604051600081526020016040526040516121af949392919061382f565b6020604051602081039080840390855afa1580156121d1573d6000803e3d6000fd5b505050602060405103519050600073ffffffffffffffffffffffffffffffffffffffff168173ffffffffffffffffffffffffffffffffffffffff160361222557600060016000801b93509350935050612234565b8060008060001b935093509350505b9450945094915050565b6000600381111561225257612251613874565b5b82600381111561226557612264613874565b5b031561239e576001600381111561227f5761227e613874565b5b82600381111561229257612291613874565b5b036122c9576040517ff645eedf00000000000000000000000000000000000000000000000000000000815260040160405180910390fd5b600260038111156122dd576122dc613874565b5b8260038111156122f0576122ef613874565b5b03612335578060001c6040517ffce698f700000000000000000000000000000000000000000000000000000000815260040161232c9190612b9d565b60405180910390fd5b60038081111561234857612347613874565b5b82600381111561235b5761235a613874565b5b0361239d57806040517fd78bce0c0000000000000000000000000000000000000000000000000000000081526004016123949190612c5b565b60405180910390fd5b5b5050565b6123aa61266a565b6123b58383836126ab565b505050565b6000806123c56119f0565b905060006123d1611a18565b90506000815111156123ee57808051906020012092505050612433565b6000826000015490506000801b811461240c57809350505050612433565b7fc5d2460186f7233c927e7db2dcc703c0e500b653ca82273b7bfad8045d85a47093505050505b90565b6000806124416119f0565b9050600061244d611ab9565b905060008151111561246a578080519060200120925050506124af565b6000826001015490506000801b8114612488578093505050506124af565b7fc5d2460186f7233c927e7db2dcc703c0e500b653ca82273b7bfad8045d85a47093505050505b90565b6000819050919050565b60008173ffffffffffffffffffffffffffffffffffffffff163b0361251857806040517f4c9c8ce300000000000000000000000000000000000000000000000000000000815260040161250f9190613040565b60405180910390fd5b806125457f360894a13ba1a3210667c828492db98dca3e2076cc3735a920a3ca505d382bbc60001b6124b2565b60000160006101000a81548173ffffffffffffffffffffffffffffffffffffffff021916908373ffffffffffffffffffffffffffffffffffffffff16021790555050565b60606000808473ffffffffffffffffffffffffffffffffffffffff16846040516125b391906138ea565b600060405180830381855af49150503d80600081146125ee576040519150601f19603f3d011682016040523d82523d6000602084013e6125f3565b606091505b50915091506126038583836128ea565b9250505092915050565b6000341115612648576040517fb398979f00000000000000000000000000000000000000000000000000000000815260040160405180910390fd5b565b60006126546118d7565b60000160089054906101000a900460ff16905090565b612672610966565b156126a9576040517fd93c066500000000000000000000000000000000000000000000000000000000815260040160405180910390fd5b565b60006126b56111dd565b9050600073ffffffffffffffffffffffffffffffffffffffff168473ffffffffffffffffffffffffffffffffffffffff160361270b57818160020160008282546126ff9190613930565b925050819055506127e4565b60008160000160008673ffffffffffffffffffffffffffffffffffffffff1673ffffffffffffffffffffffffffffffffffffffff1681526020019081526020016000205490508281101561279a578481846040517fe450d38c000000000000000000000000000000000000000000000000000000008152600401612791939291906134ef565b60405180910390fd5b8281038260000160008773ffffffffffffffffffffffffffffffffffffffff1673ffffffffffffffffffffffffffffffffffffffff16815260200190815260200160002081905550505b600073ffffffffffffffffffffffffffffffffffffffff168373ffffffffffffffffffffffffffffffffffffffff160361282f5781816002016000828254039250508190555061287f565b818160000160008573ffffffffffffffffffffffffffffffffffffffff1673ffffffffffffffffffffffffffffffffffffffff168152602001908152602001600020600082825401925050819055505b8273ffffffffffffffffffffffffffffffffffffffff168473ffffffffffffffffffffffffffffffffffffffff167fddf252ad1be2c89b69c2b068fc378daa952ba7f163c4a11628f55a4df523b3ef846040516128dc9190612b9d565b60405180910390a350505050565b6060826128ff576128fa82612979565b612971565b60008251148015612927575060008473ffffffffffffffffffffffffffffffffffffffff163b145b1561296957836040517f9996b3150000000000000000000000000000000000000000000000000000000081526004016129609190613040565b60405180910390fd5b819050612972565b5b9392505050565b60008151111561298c5780518082602001fd5b6040517f1425ea4200000000000000000000000000000000000000000000000000000000815260040160405180910390fd5b600081519050919050565b600082825260208201905092915050565b60005b838110156129f85780820151818401526020810190506129dd565b60008484015250505050565b6000601f19601f8301169050919050565b6000612a20826129be565b612a2a81856129c9565b9350612a3a8185602086016129da565b612a4381612a04565b840191505092915050565b60006020820190508181036000830152612a688184612a15565b905092915050565b6000604051905090565b600080fd5b600080fd5b600073ffffffffffffffffffffffffffffffffffffffff82169050919050565b6000612aaf82612a84565b9050919050565b612abf81612aa4565b8114612aca57600080fd5b50565b600081359050612adc81612ab6565b92915050565b6000819050919050565b612af581612ae2565b8114612b0057600080fd5b50565b600081359050612b1281612aec565b92915050565b60008060408385031215612b2f57612b2e612a7a565b5b6000612b3d85828601612acd565b9250506020612b4e85828601612b03565b9150509250929050565b60008115159050919050565b612b6d81612b58565b82525050565b6000602082019050612b886000830184612b64565b92915050565b612b9781612ae2565b82525050565b6000602082019050612bb26000830184612b8e565b92915050565b600080600060608486031215612bd157612bd0612a7a565b5b6000612bdf86828701612acd565b9350506020612bf086828701612acd565b9250506040612c0186828701612b03565b9150509250925092565b600060ff82169050919050565b612c2181612c0b565b82525050565b6000602082019050612c3c6000830184612c18565b92915050565b6000819050919050565b612c5581612c42565b82525050565b6000602082019050612c706000830184612c4c565b92915050565b600060208284031215612c8c57612c8b612a7a565b5b6000612c9a84828501612b03565b91505092915050565b600080fd5b600080fd5b7f4e487b7100000000000000000000000000000000000000000000000000000000600052604160045260246000fd5b612ce582612a04565b810181811067ffffffffffffffff82111715612d0457612d03612cad565b5b80604052505050565b6000612d17612a70565b9050612d238282612cdc565b919050565b600067ffffffffffffffff821115612d4357612d42612cad565b5b612d4c82612a04565b9050602081019050919050565b82818337600083830152505050565b6000612d7b612d7684612d28565b612d0d565b905082815260208101848484011115612d9757612d96612ca8565b5b612da2848285612d59565b509392505050565b600082601f830112612dbf57612dbe612ca3565b5b8135612dcf848260208601612d68565b91505092915050565b60008060408385031215612def57612dee612a7a565b5b6000612dfd85828601612acd565b925050602083013567ffffffffffffffff811115612e1e57612e1d612a7f565b5b612e2a85828601612daa565b9150509250929050565b600060208284031215612e4a57612e49612a7a565b5b6000612e5884828501612acd565b91505092915050565b600080600060608486031215612e7a57612e79612a7a565b5b6000612e8886828701612acd565b9350506020612e9986828701612b03565b9250506040612eaa86828701612b03565b9150509250925092565b60007fff0000000000000000000000000000000000000000000000000000000000000082169050919050565b612ee981612eb4565b82525050565b612ef881612aa4565b82525050565b600081519050919050565b600082825260208201905092915050565b6000819050602082019050919050565b612f3381612ae2565b82525050565b6000612f458383612f2a565b60208301905092915050565b6000602082019050919050565b6000612f6982612efe565b612f738185612f09565b9350612f7e83612f1a565b8060005b83811015612faf578151612f968882612f39565b9750612fa183612f51565b925050600181019050612f82565b5085935050505092915050565b600060e082019050612fd1600083018a612ee0565b8181036020830152612fe38189612a15565b90508181036040830152612ff78188612a15565b90506130066060830187612b8e565b6130136080830186612eef565b61302060a0830185612c4c565b81810360c08301526130328184612f5e565b905098975050505050505050565b60006020820190506130556000830184612eef565b92915050565b61306481612c0b565b811461306f57600080fd5b50565b6000813590506130818161305b565b92915050565b61309081612c42565b811461309b57600080fd5b50565b6000813590506130ad81613087565b92915050565b600080600080600080600060e0888a0312156130d2576130d1612a7a565b5b60006130e08a828b01612acd565b97505060206130f18a828b01612acd565b96505060406131028a828b01612b03565b95505060606131138a828b01612b03565b94505060806131248a828b01613072565b93505060a06131358a828b0161309e565b92505060c06131468a828b0161309e565b91505092959891949750929550565b6000806040838503121561316c5761316b612a7a565b5b600061317a85828601612acd565b925050602061318b85828601612acd565b9150509250929050565b7f4e487b7100000000000000000000000000000000000000000000000000000000600052602260045260246000fd5b600060028204905060018216806131dc57607f821691505b6020821081036131ef576131ee613195565b5b50919050565b7f596f75722062616c616e63652069732062656c6f7720746865206d696e696d7560008201527f6d20726571756972656420746f20636c61696d207468652061697264726f7000602082015250565b6000613251603f836129c9565b915061325c826131f5565b604082019050919050565b6000602082019050818103600083015261328081613244565b9050919050565b7f596f75206861766520616c726561647920636c61696d6564207468652061697260008201527f64726f7000000000000000000000000000000000000000000000000000000000602082015250565b60006132e36024836129c9565b91506132ee82613287565b604082019050919050565b60006020820190508181036000830152613312816132d6565b9050919050565b6000819050919050565b600067ffffffffffffffff82169050919050565b6000819050919050565b600061335c61335761335284613319565b613337565b613323565b9050919050565b61336c81613341565b82525050565b60006020820190506133876000830184613363565b92915050565b7f4549503731323a20556e696e697469616c697a65640000000000000000000000600082015250565b60006133c36015836129c9565b91506133ce8261338d565b602082019050919050565b600060208201905081810360008301526133f2816133b6565b9050919050565b7f4e6f2072656d61696e696e6720746f6b656e7320746f20776974686472617700600082015250565b600061342f601f836129c9565b915061343a826133f9565b602082019050919050565b6000602082019050818103600083015261345e81613422565b9050919050565b600060c08201905061347a6000830189612c4c565b6134876020830188612eef565b6134946040830187612eef565b6134a16060830186612b8e565b6134ae6080830185612b8e565b6134bb60a0830184612b8e565b979650505050505050565b60006040820190506134db6000830185612eef565b6134e86020830184612eef565b9392505050565b60006060820190506135046000830186612eef565b6135116020830185612b8e565b61351e6040830184612b8e565b949350505050565b60008151905061353581613087565b92915050565b60006020828403121561355157613550612a7a565b5b600061355f84828501613526565b91505092915050565b600060a08201905061357d6000830188612c4c565b61358a6020830187612c4c565b6135976040830186612c4c565b6135a46060830185612b8e565b6135b16080830184612eef565b9695505050505050565b60008190508160005260206000209050919050565b60006020601f8301049050919050565b600082821b905092915050565b60006008830261361d7fffffffffffffffffffffffffffffffffffffffffffffffffffffffffffffffff826135e0565b61362786836135e0565b95508019841693508086168417925050509392505050565b600061365a61365561365084612ae2565b613337565b612ae2565b9050919050565b6000819050919050565b6136748361363f565b61368861368082613661565b8484546135ed565b825550505050565b600090565b61369d613690565b6136a881848461366b565b505050565b5b818110156136cc576136c1600082613695565b6001810190506136ae565b5050565b601f821115613711576136e2816135bb565b6136eb846135d0565b810160208510156136fa578190505b61370e613706856135d0565b8301826136ad565b50505b505050565b600082821c905092915050565b600061373460001984600802613716565b1980831691505092915050565b600061374d8383613723565b9150826002028217905092915050565b613766826129be565b67ffffffffffffffff81111561377f5761377e612cad565b5b61378982546131c4565b6137948282856136d0565b600060209050601f8311600181146137c757600084156137b5578287015190505b6137bf8582613741565b865550613827565b601f1984166137d5866135bb565b60005b828110156137fd578489015182556001820191506020850194506020810190506137d8565b8683101561381a5784890151613816601f891682613723565b8355505b6001600288020188555050505b505050505050565b60006080820190506138446000830187612c4c565b6138516020830186612c18565b61385e6040830185612c4c565b61386b6060830184612c4c565b95945050505050565b7f4e487b7100000000000000000000000000000000000000000000000000000000600052602160045260246000fd5b600081519050919050565b600081905092915050565b60006138c4826138a3565b6138ce81856138ae565b93506138de8185602086016129da565b80840191505092915050565b60006138f682846138b9565b915081905092915050565b7f4e487b7100000000000000000000000000000000000000000000000000000000600052601160045260246000fd5b600061393b82612ae2565b915061394683612ae2565b925082820190508082111561395e5761395d613901565b5b9291505056fea2646970667358221220f28060ffbbad212f62fbd34a0ab46c9c2844f7f3db93265d32645671028fa66f64736f6c63430008140033",
  "linkReferences": {},
  "deployedLinkReferences": {}
}